:10000000CF93DF93CDB7DEB78AE290E020E4FC0126
:1000100020838BE290E020E4FC012083F89484E4C8
:1000200090E0FC01108285E490E0FC01108286E4FF
:1000300090E0FC01108284E490E0FC01208184E4E3
:1000400090E02260FC01208387E490E02CE9FC0131
:10005000208385E490E0FC01208185E490E0256028
:10006000FC0120838EE690E0FC0120818EE690E08A
:100070002160FC012083789480E090E0DF91CF91B3
:1000800008951F920F920FB60F9211242F933F9352
:100090008F939F93EF93FF93CF93DF93CDB7DEB70B
:1000A0008BE290E0FC0130818BE290E020E423279A
:1000B000FC0120830000DF91CF91FF91EF919F9190
:1000C0008F913F912F910F900FBE0F901F90189519
:00000001FF
